{
  "contractName": "BURN",
  "abi": [
    {
      "inputs": [
        {
          "internalType": "uint256",
          "name": "initialSupply",
          "type": "uint256"
        }
      ],
      "stateMutability": "nonpayable",
      "type": "constructor"
    },
    {
      "inputs": [
        {
          "internalType": "address",
          "name": "spender",
          "type": "address"
        },
        {
          "internalType": "uint256",
          "name": "allowance",
          "type": "uint256"
        },
        {
          "internalType": "uint256",
          "name": "needed",
          "type": "uint256"
        }
      ],
      "name": "ERC20InsufficientAllowance",
      "type": "error"
    },
    {
      "inputs": [
        {
          "internalType": "address",
          "name": "sender",
          "type": "address"
        },
        {
          "internalType": "uint256",
          "name": "balance",
          "type": "uint256"
        },
        {
          "internalType": "uint256",
          "name": "needed",
          "type": "uint256"
        }
      ],
      "name": "ERC20InsufficientBalance",
      "type": "error"
    },
    {
      "inputs": [
        {
          "internalType": "address",
          "name": "approver",
          "type": "address"
        }
      ],
      "name": "ERC20InvalidApprover",
      "type": "error"
    },
    {
      "inputs": [
        {
          "internalType": "address",
          "name": "receiver",
          "type": "address"
        }
      ],
      "name": "ERC20InvalidReceiver",
      "type": "error"
    },
    {
      "inputs": [
        {
          "internalType": "address",
          "name": "sender",
          "type": "address"
        }
      ],
      "name": "ERC20InvalidSender",
      "type": "error"
    },
    {
      "inputs": [
        {
          "internalType": "address",
          "name": "spender",
          "type": "address"
        }
      ],
      "name": "ERC20InvalidSpender",
      "type": "error"
    },
    {
      "anonymous": false,
      "inputs": [
        {
          "indexed": true,
          "internalType": "address",
          "name": "owner",
          "type": "address"
        },
        {
          "indexed": true,
          "internalType": "address",
          "name": "spender",
          "type": "address"
        },
        {
          "indexed": false,
          "internalType": "uint256",
          "name": "value",
          "type": "uint256"
        }
      ],
      "name": "Approval",
      "type": "event"
    },
    {
      "anonymous": false,
      "inputs": [
        {
          "indexed": true,
          "internalType": "address",
          "name": "from",
          "type": "address"
        },
        {
          "indexed": true,
          "internalType": "address",
          "name": "to",
          "type": "address"
        },
        {
          "indexed": false,
          "internalType": "uint256",
          "name": "value",
          "type": "uint256"
        }
      ],
      "name": "Transfer",
      "type": "event"
    },
    {
      "inputs": [
        {
          "internalType": "address",
          "name": "owner",
          "type": "address"
        },
        {
          "internalType": "address",
          "name": "spender",
          "type": "address"
        }
      ],
      "name": "allowance",
      "outputs": [
        {
          "internalType": "uint256",
          "name": "",
          "type": "uint256"
        }
      ],
      "stateMutability": "view",
      "type": "function"
    },
    {
      "inputs": [
        {
          "internalType": "address",
          "name": "spender",
          "type": "address"
        },
        {
          "internalType": "uint256",
          "name": "value",
          "type": "uint256"
        }
      ],
      "name": "approve",
      "outputs": [
        {
          "internalType": "bool",
          "name": "",
          "type": "bool"
        }
      ],
      "stateMutability": "nonpayable",
      "type": "function"
    },
    {
      "inputs": [
        {
          "internalType": "address",
          "name": "account",
          "type": "address"
        }
      ],
      "name": "balanceOf",
      "outputs": [
        {
          "internalType": "uint256",
          "name": "",
          "type": "uint256"
        }
      ],
      "stateMutability": "view",
      "type": "function"
    },
    {
      "inputs": [],
      "name": "decimals",
      "outputs": [
        {
          "internalType": "uint8",
          "name": "",
          "type": "uint8"
        }
      ],
      "stateMutability": "view",
      "type": "function"
    },
    {
      "inputs": [],
      "name": "name",
      "outputs": [
        {
          "internalType": "string",
          "name": "",
          "type": "string"
        }
      ],
      "stateMutability": "view",
      "type": "function"
    },
    {
      "inputs": [],
      "name": "symbol",
      "outputs": [
        {
          "internalType": "string",
          "name": "",
          "type": "string"
        }
      ],
      "stateMutability": "view",
      "type": "function"
    },
    {
      "inputs": [],
      "name": "totalSupply",
      "outputs": [
        {
          "internalType": "uint256",
          "name": "",
          "type": "uint256"
        }
      ],
      "stateMutability": "view",
      "type": "function"
    },
    {
      "inputs": [
        {
          "internalType": "address",
          "name": "to",
          "type": "address"
        },
        {
          "internalType": "uint256",
          "name": "value",
          "type": "uint256"
        }
      ],
      "name": "transfer",
      "outputs": [
        {
          "internalType": "bool",
          "name": "",
          "type": "bool"
        }
      ],
      "stateMutability": "nonpayable",
      "type": "function"
    },
    {
      "inputs": [
        {
          "internalType": "address",
          "name": "from",
          "type": "address"
        },
        {
          "internalType": "address",
          "name": "to",
          "type": "address"
        },
        {
          "internalType": "uint256",
          "name": "value",
          "type": "uint256"
        }
      ],
      "name": "transferFrom",
      "outputs": [
        {
          "internalType": "bool",
          "name": "",
          "type": "bool"
        }
      ],
      "stateMutability": "nonpayable",
      "type": "function"
    },
    {
      "inputs": [
        {
          "internalType": "address",
          "name": "to",
          "type": "address"
        },
        {
          "internalType": "uint256",
          "name": "amount",
          "type": "uint256"
        }
      ],
      "name": "mint",
      "outputs": [],
      "stateMutability": "nonpayable",
      "type": "function"
    },
    {
      "inputs": [
        {
          "internalType": "uint256",
          "name": "amount",
          "type": "uint256"
        }
      ],
      "name": "burn",
      "outputs": [],
      "stateMutability": "nonpayable",
      "type": "function"
    }
  ],
  "bytecode": "0x608060405234801562000010575f80fd5b5060405162000e3138038062000e31833981016040819052620000339162000245565b6040518060400160405280600a815260200169212aa927102a37b5b2b760b11b81525060405180604001604052806004815260200163212aa92760e11b8152508160039081620000849190620002fd565b506004620000938282620002fd565b505050620000ca33620000ab620000d160201b60201c565b620000b890600a620004d4565b620000c49084620004eb565b620000d6565b506200051b565b601290565b6001600160a01b038216620001055760405163ec442f0560e01b81525f60048201526024015b60405180910390fd5b620001125f838362000116565b5050565b6001600160a01b03831662000144578060025f82825462000138919062000505565b90915550620001b69050565b6001600160a01b0383165f9081526020819052604090205481811015620001985760405163391434e360e21b81526001600160a01b03851660048201526024810182905260448101839052606401620000fc565b6001600160a01b0384165f9081526020819052604090209082900390555b6001600160a01b038216620001d457600280548290039055620001f2565b6001600160a01b0382165f9081526020819052604090208054820190555b816001600160a01b0316836001600160a01b03167fddf252ad1be2c89b69c2b068fc378daa952ba7f163c4a11628f55a4df523b3ef836040516200023891815260200190565b60405180910390a3505050565b5f6020828403121562000256575f80fd5b5051919050565b634e487b7160e01b5f52604160045260245ffd5b600181811c908216806200028657607f821691505b602082108103620002a557634e487b7160e01b5f52602260045260245ffd5b50919050565b601f821115620002f8575f81815260208120601f850160051c81016020861015620002d35750805b601f850160051c820191505b81811015620002f457828155600101620002df565b5050505b505050565b81516001600160401b038111156200031957620003196200025d565b62000331816200032a845462000271565b84620002ab565b602080601f83116001811462000367575f84156200034f5750858301515b5f19600386901b1c1916600185901b178555620002f4565b5f85815260208120601f198616915b82811015620003975788860151825594840194600190910190840162000376565b5085821015620003b557878501515f19600388901b60f8161c191681555b5050505050600190811b01905550565b634e487b7160e01b5f52601160045260245ffd5b600181815b808511156200041957815f1904821115620003fd57620003fd620003c5565b808516156200040b57918102915b93841c9390800290620003de565b509250929050565b5f826200043157506001620004ce565b816200043f57505f620004ce565b8160018114620004585760028114620004635762000483565b6001915050620004ce565b60ff841115620004775762000477620003c5565b50506001821b620004ce565b5060208310610133831016604e8410600b8410161715620004a8575081810a620004ce565b620004b48383620003d9565b805f1904821115620004ca57620004ca620003c5565b0290505b92915050565b5f620004e460ff84168362000421565b9392505050565b8082028115828204841417620004ce57620004ce620003c5565b80820180821115620004ce57620004ce620003c5565b61090880620005295f395ff3fe608060405234801561000f575f80fd5b50600436106100a6575f3560e01c806340c10f191161006e57806340c10f191461011f57806342966c681461013457806370a082311461014757806395d89b411461016f578063a9059cbb14610177578063dd62ed3e1461018a575f80fd5b806306fdde03146100aa578063095ea7b3146100c857806318160ddd146100eb57806323b872dd146100fd578063313ce56714610110575b5f80fd5b6100b26101c2565b6040516100bf919061063f565b60405180910390f35b6100db6100d63660046106a5565b610252565b60405190151581526020016100bf565b6002545b6040519081526020016100bf565b6100db61010b3660046106cd565b61026b565b604051601281526020016100bf565b61013261012d3660046106a5565b61028e565b005b610132610142366004610706565b6102b1565b6100ef61015536600461071d565b6001600160a01b03165f9081526020819052604090205490565b6100b26102d3565b6100db6101853660046106a5565b6102e2565b6100ef61019836600461073d565b6001600160a01b039182165f90815260016020908152604080832093909416825291909152205490565b6060600380546101d19061076e565b80601f01602080910402602001604051908101604052809291908181526020018280546101fd9061076e565b80156102485780601f1061021f57610100808354040283529160200191610248565b820191905f5260205f20905b81548152906001019060200180831161022b57829003601f168201915b5050505050905090565b5f3361025f8185856102ef565b60019150505b92915050565b5f33610278858285610301565b610283858585610382565b506001949350505050565b6102ad8261029e6012600a61089a565b6102a890846108a8565b6103df565b5050565b6102d0336102c16012600a61089a565b6102cb90846108a8565b610413565b50565b6060600480546101d19061076e565b5f3361025f818585610382565b6102fc8383836001610447565b505050565b6001600160a01b038381165f908152600160209081526040808320938616835292905220545f1981101561037c578181101561036e57604051637dc7a0d960e11b81526001600160a01b038416600482015260248101829052604481018390526064015b60405180910390fd5b61037c84848484035f610447565b50505050565b6001600160a01b0383166103ab57604051634b637e8f60e11b81525f6004820152602401610365565b6001600160a01b0382166103d45760405163ec442f0560e01b81525f6004820152602401610365565b6102fc838383610519565b6001600160a01b0382166104085760405163ec442f0560e01b81525f6004820152602401610365565b6102ad5f8383610519565b6001600160a01b03821661043c57604051634b637e8f60e11b81525f6004820152602401610365565b6102ad825f83610519565b6001600160a01b0384166104705760405163e602df0560e01b81525f6004820152602401610365565b6001600160a01b03831661049957604051634a1406b160e11b81525f6004820152602401610365565b6001600160a01b038085165f908152600160209081526040808320938716835292905220829055801561037c57826001600160a01b0316846001600160a01b03167f8c5be1e5ebec7d5bd14f71427d1e84f3dd0314c0f7b2291e5b200ac8c7c3b9258460405161050b91815260200190565b60405180910390a350505050565b6001600160a01b038316610543578060025f82825461053891906108bf565b909155506105b39050565b6001600160a01b0383165f90815260208190526040902054818110156105955760405163391434e360e21b81526001600160a01b03851660048201526024810182905260448101839052606401610365565b6001600160a01b0384165f9081526020819052604090209082900390555b6001600160a01b0382166105cf576002805482900390556105ed565b6001600160a01b0382165f9081526020819052604090208054820190555b816001600160a01b0316836001600160a01b03167fddf252ad1be2c89b69c2b068fc378daa952ba7f163c4a11628f55a4df523b3ef8360405161063291815260200190565b60405180910390a3505050565b5f6020808352835180828501525f5b8181101561066a5785810183015185820160400152820161064e565b505f604082860101526040601f19601f8301168501019250505092915050565b80356001600160a01b03811681146106a0575f80fd5b919050565b5f80604083850312156106b6575f80fd5b6106bf8361068a565b946020939093013593505050565b5f805f606084860312156106df575f80fd5b6106e88461068a565b92506106f66020850161068a565b9150604084013590509250925092565b5f60208284031215610716575f80fd5b5035919050565b5f6020828403121561072d575f80fd5b6107368261068a565b9392505050565b5f806040838503121561074e575f80fd5b6107578361068a565b91506107656020840161068a565b90509250929050565b600181811c9082168061078257607f821691505b6020821081036107a057634e487b7160e01b5f52602260045260245ffd5b50919050565b634e487b7160e01b5f52601160045260245ffd5b600181815b808511156107f457815f19048211156107da576107da6107a6565b808516156107e757918102915b93841c93908002906107bf565b509250929050565b5f8261080a57506001610265565b8161081657505f610265565b816001811461082c576002811461083657610852565b6001915050610265565b60ff841115610847576108476107a6565b50506001821b610265565b5060208310610133831016604e8410600b8410161715610875575081810a610265565b61087f83836107ba565b805f1904821115610892576108926107a6565b029392505050565b5f61073660ff8416836107fc565b8082028115828204841417610265576102656107a6565b80820180821115610265576102656107a656fea2646970667358221220c82a6b6eecd57c5f945881958f80ae8f650528a2d57d980a2eda5a59947b45cb64736f6c63430008140033",
  "immutableReferences": {},
  "source": "// SPDX-License-Identifier: MIT\r\npragma solidity ^0.8.0;\r\n\r\nimport \"@openzeppelin/contracts/token/ERC20/ERC20.sol\";\r\n\r\ncontract BURN is ERC20 {\r\n    constructor(uint256 initialSupply) ERC20(\"BURN Token\", \"BURN\") {\r\n        _mint(msg.sender, initialSupply * 10**decimals());\r\n    }\r\n\r\n    function mint(address to, uint256 amount) external {\r\n        _mint(to, amount * 10**decimals());\r\n    }\r\n\r\n    function burn(uint256 amount) external {\r\n        _burn(msg.sender, amount * 10**decimals());\r\n    }\r\n}\r\n",
  "sourcePath": "C:\\Users\\John PC\\Desktop\\startups\\GIMERA_DEX\\contracts\\contracts\\BURN.sol",
  "compiler": {
    "name": "solc",
    "version": "0.8.20+commit.a1b79de6.Emscripten.clang"
  },
  "schemaVersion": "3.4.16",
  "updatedAt": "2025-02-11T17:55:49.235Z",
  "devdoc": {
    "errors": {
      "ERC20InsufficientAllowance(address,uint256,uint256)": [
        {
          "details": "Indicates a failure with the `spender`s `allowance`. Used in transfers.",
          "params": {
            "allowance": "Amount of tokens a `spender` is allowed to operate with.",
            "needed": "Minimum amount required to perform a transfer.",
            "spender": "Address that may be allowed to operate on tokens without being their owner."
          }
        }
      ],
      "ERC20InsufficientBalance(address,uint256,uint256)": [
        {
          "details": "Indicates an error related to the current `balance` of a `sender`. Used in transfers.",
          "params": {
            "balance": "Current balance for the interacting account.",
            "needed": "Minimum amount required to perform a transfer.",
            "sender": "Address whose tokens are being transferred."
          }
        }
      ],
      "ERC20InvalidApprover(address)": [
        {
          "details": "Indicates a failure with the `approver` of a token to be approved. Used in approvals.",
          "params": {
            "approver": "Address initiating an approval operation."
          }
        }
      ],
      "ERC20InvalidReceiver(address)": [
        {
          "details": "Indicates a failure with the token `receiver`. Used in transfers.",
          "params": {
            "receiver": "Address to which tokens are being transferred."
          }
        }
      ],
      "ERC20InvalidSender(address)": [
        {
          "details": "Indicates a failure with the token `sender`. Used in transfers.",
          "params": {
            "sender": "Address whose tokens are being transferred."
          }
        }
      ],
      "ERC20InvalidSpender(address)": [
        {
          "details": "Indicates a failure with the `spender` to be approved. Used in approvals.",
          "params": {
            "spender": "Address that may be allowed to operate on tokens without being their owner."
          }
        }
      ]
    },
    "events": {
      "Approval(address,address,uint256)": {
        "details": "Emitted when the allowance of a `spender` for an `owner` is set by a call to {approve}. `value` is the new allowance."
      },
      "Transfer(address,address,uint256)": {
        "details": "Emitted when `value` tokens are moved from one account (`from`) to another (`to`). Note that `value` may be zero."
      }
    },
    "kind": "dev",
    "methods": {
      "allowance(address,address)": {
        "details": "See {IERC20-allowance}."
      },
      "approve(address,uint256)": {
        "details": "See {IERC20-approve}. NOTE: If `value` is the maximum `uint256`, the allowance is not updated on `transferFrom`. This is semantically equivalent to an infinite approval. Requirements: - `spender` cannot be the zero address."
      },
      "balanceOf(address)": {
        "details": "See {IERC20-balanceOf}."
      },
      "decimals()": {
        "details": "Returns the number of decimals used to get its user representation. For example, if `decimals` equals `2`, a balance of `505` tokens should be displayed to a user as `5.05` (`505 / 10 ** 2`). Tokens usually opt for a value of 18, imitating the relationship between Ether and Wei. This is the default value returned by this function, unless it's overridden. NOTE: This information is only used for _display_ purposes: it in no way affects any of the arithmetic of the contract, including {IERC20-balanceOf} and {IERC20-transfer}."
      },
      "name()": {
        "details": "Returns the name of the token."
      },
      "symbol()": {
        "details": "Returns the symbol of the token, usually a shorter version of the name."
      },
      "totalSupply()": {
        "details": "See {IERC20-totalSupply}."
      },
      "transfer(address,uint256)": {
        "details": "See {IERC20-transfer}. Requirements: - `to` cannot be the zero address. - the caller must have a balance of at least `value`."
      },
      "transferFrom(address,address,uint256)": {
        "details": "See {IERC20-transferFrom}. Skips emitting an {Approval} event indicating an allowance update. This is not required by the ERC. See {xref-ERC20-_approve-address-address-uint256-bool-}[_approve]. NOTE: Does not update the allowance if the current allowance is the maximum `uint256`. Requirements: - `from` and `to` cannot be the zero address. - `from` must have a balance of at least `value`. - the caller must have allowance for ``from``'s tokens of at least `value`."
      }
    },
    "version": 1
  },
  "userdoc": {
    "kind": "user",
    "methods": {},
    "version": 1
  }
}