{
  "contractName": "Pool2",
  "abi": [
    {
      "inputs": [
        {
          "internalType": "address",
          "name": "_tokenA",
          "type": "address"
        },
        {
          "internalType": "address",
          "name": "_tokenB",
          "type": "address"
        },
        {
          "internalType": "address",
          "name": "_aiAddress",
          "type": "address"
        }
      ],
      "stateMutability": "nonpayable",
      "type": "constructor"
    },
    {
      "inputs": [
        {
          "internalType": "address",
          "name": "spender",
          "type": "address"
        },
        {
          "internalType": "uint256",
          "name": "allowance",
          "type": "uint256"
        },
        {
          "internalType": "uint256",
          "name": "needed",
          "type": "uint256"
        }
      ],
      "name": "ERC20InsufficientAllowance",
      "type": "error"
    },
    {
      "inputs": [
        {
          "internalType": "address",
          "name": "sender",
          "type": "address"
        },
        {
          "internalType": "uint256",
          "name": "balance",
          "type": "uint256"
        },
        {
          "internalType": "uint256",
          "name": "needed",
          "type": "uint256"
        }
      ],
      "name": "ERC20InsufficientBalance",
      "type": "error"
    },
    {
      "inputs": [
        {
          "internalType": "address",
          "name": "approver",
          "type": "address"
        }
      ],
      "name": "ERC20InvalidApprover",
      "type": "error"
    },
    {
      "inputs": [
        {
          "internalType": "address",
          "name": "receiver",
          "type": "address"
        }
      ],
      "name": "ERC20InvalidReceiver",
      "type": "error"
    },
    {
      "inputs": [
        {
          "internalType": "address",
          "name": "sender",
          "type": "address"
        }
      ],
      "name": "ERC20InvalidSender",
      "type": "error"
    },
    {
      "inputs": [
        {
          "internalType": "address",
          "name": "spender",
          "type": "address"
        }
      ],
      "name": "ERC20InvalidSpender",
      "type": "error"
    },
    {
      "inputs": [
        {
          "internalType": "address",
          "name": "token",
          "type": "address"
        }
      ],
      "name": "SafeERC20FailedOperation",
      "type": "error"
    },
    {
      "anonymous": false,
      "inputs": [
        {
          "indexed": true,
          "internalType": "address",
          "name": "owner",
          "type": "address"
        },
        {
          "indexed": true,
          "internalType": "address",
          "name": "spender",
          "type": "address"
        },
        {
          "indexed": false,
          "internalType": "uint256",
          "name": "value",
          "type": "uint256"
        }
      ],
      "name": "Approval",
      "type": "event"
    },
    {
      "anonymous": false,
      "inputs": [
        {
          "indexed": true,
          "internalType": "address",
          "name": "from",
          "type": "address"
        },
        {
          "indexed": true,
          "internalType": "address",
          "name": "to",
          "type": "address"
        },
        {
          "indexed": false,
          "internalType": "uint256",
          "name": "value",
          "type": "uint256"
        }
      ],
      "name": "Transfer",
      "type": "event"
    },
    {
      "inputs": [],
      "name": "FEE_RATE",
      "outputs": [
        {
          "internalType": "uint256",
          "name": "",
          "type": "uint256"
        }
      ],
      "stateMutability": "view",
      "type": "function"
    },
    {
      "inputs": [],
      "name": "aiAddress",
      "outputs": [
        {
          "internalType": "address",
          "name": "",
          "type": "address"
        }
      ],
      "stateMutability": "view",
      "type": "function"
    },
    {
      "inputs": [
        {
          "internalType": "address",
          "name": "owner",
          "type": "address"
        },
        {
          "internalType": "address",
          "name": "spender",
          "type": "address"
        }
      ],
      "name": "allowance",
      "outputs": [
        {
          "internalType": "uint256",
          "name": "",
          "type": "uint256"
        }
      ],
      "stateMutability": "view",
      "type": "function"
    },
    {
      "inputs": [
        {
          "internalType": "address",
          "name": "spender",
          "type": "address"
        },
        {
          "internalType": "uint256",
          "name": "value",
          "type": "uint256"
        }
      ],
      "name": "approve",
      "outputs": [
        {
          "internalType": "bool",
          "name": "",
          "type": "bool"
        }
      ],
      "stateMutability": "nonpayable",
      "type": "function"
    },
    {
      "inputs": [
        {
          "internalType": "address",
          "name": "account",
          "type": "address"
        }
      ],
      "name": "balanceOf",
      "outputs": [
        {
          "internalType": "uint256",
          "name": "",
          "type": "uint256"
        }
      ],
      "stateMutability": "view",
      "type": "function"
    },
    {
      "inputs": [],
      "name": "decimals",
      "outputs": [
        {
          "internalType": "uint8",
          "name": "",
          "type": "uint8"
        }
      ],
      "stateMutability": "view",
      "type": "function"
    },
    {
      "inputs": [],
      "name": "name",
      "outputs": [
        {
          "internalType": "string",
          "name": "",
          "type": "string"
        }
      ],
      "stateMutability": "view",
      "type": "function"
    },
    {
      "inputs": [],
      "name": "symbol",
      "outputs": [
        {
          "internalType": "string",
          "name": "",
          "type": "string"
        }
      ],
      "stateMutability": "view",
      "type": "function"
    },
    {
      "inputs": [],
      "name": "tokenA",
      "outputs": [
        {
          "internalType": "contract IERC20",
          "name": "",
          "type": "address"
        }
      ],
      "stateMutability": "view",
      "type": "function"
    },
    {
      "inputs": [],
      "name": "tokenB",
      "outputs": [
        {
          "internalType": "contract IERC20",
          "name": "",
          "type": "address"
        }
      ],
      "stateMutability": "view",
      "type": "function"
    },
    {
      "inputs": [],
      "name": "totalSupply",
      "outputs": [
        {
          "internalType": "uint256",
          "name": "",
          "type": "uint256"
        }
      ],
      "stateMutability": "view",
      "type": "function"
    },
    {
      "inputs": [
        {
          "internalType": "address",
          "name": "to",
          "type": "address"
        },
        {
          "internalType": "uint256",
          "name": "value",
          "type": "uint256"
        }
      ],
      "name": "transfer",
      "outputs": [
        {
          "internalType": "bool",
          "name": "",
          "type": "bool"
        }
      ],
      "stateMutability": "nonpayable",
      "type": "function"
    },
    {
      "inputs": [
        {
          "internalType": "address",
          "name": "from",
          "type": "address"
        },
        {
          "internalType": "address",
          "name": "to",
          "type": "address"
        },
        {
          "internalType": "uint256",
          "name": "value",
          "type": "uint256"
        }
      ],
      "name": "transferFrom",
      "outputs": [
        {
          "internalType": "bool",
          "name": "",
          "type": "bool"
        }
      ],
      "stateMutability": "nonpayable",
      "type": "function"
    },
    {
      "inputs": [
        {
          "internalType": "uint256",
          "name": "amountIn",
          "type": "uint256"
        },
        {
          "internalType": "address",
          "name": "fromToken",
          "type": "address"
        },
        {
          "internalType": "address",
          "name": "toToken",
          "type": "address"
        }
      ],
      "name": "swap",
      "outputs": [],
      "stateMutability": "nonpayable",
      "type": "function"
    },
    {
      "inputs": [
        {
          "internalType": "uint256",
          "name": "amountIn",
          "type": "uint256"
        },
        {
          "internalType": "address",
          "name": "fromToken",
          "type": "address"
        },
        {
          "internalType": "address",
          "name": "toToken",
          "type": "address"
        }
      ],
      "name": "getAmountOut",
      "outputs": [
        {
          "internalType": "uint256",
          "name": "",
          "type": "uint256"
        }
      ],
      "stateMutability": "view",
      "type": "function"
    },
    {
      "inputs": [
        {
          "internalType": "uint256",
          "name": "amountA",
          "type": "uint256"
        },
        {
          "internalType": "uint256",
          "name": "amountB",
          "type": "uint256"
        }
      ],
      "name": "addLiquidity",
      "outputs": [],
      "stateMutability": "nonpayable",
      "type": "function"
    },
    {
      "inputs": [
        {
          "internalType": "uint256",
          "name": "liquidity",
          "type": "uint256"
        }
      ],
      "name": "removeLiquidity",
      "outputs": [],
      "stateMutability": "nonpayable",
      "type": "function"
    }
  ],
  "bytecode": "0x608060405234801562000010575f80fd5b50604051620013a2380380620013a283398101604081905262000033916200025b565b6040518060400160405280601a81526020017f4c69717569646974792050726f766964657220546f6b656e20320000000000008152506040518060400160405280600481526020016326282f9960e11b815250816003908162000097919062000342565b506004620000a6828262000342565b5050600580546001600160a01b038087166001600160a01b03199283161790925560068054868416908316179055600780549285169290911691909117905550620001253330620000f5601290565b6200010290600a62000519565b62000110906103e862000530565b6005546001600160a01b031692919062000165565b6200015c3330620001396012600a62000519565b620001479061138862000530565b6006546001600160a01b031692919062000165565b5050506200054a565b604080516001600160a01b0385811660248301528416604482015260648082018490528251808303909101815260849091019091526020810180516001600160e01b039081166323b872dd60e01b17909152620001c5918691620001cb16565b50505050565b5f8060205f8451602086015f885af180620001eb576040513d5f823e3d81fd5b50505f513d915081156200020457806001141562000211565b6001600160a01b0384163b155b15620001c557604051635274afe760e01b81526001600160a01b038516600482015260240160405180910390fd5b80516001600160a01b038116811462000256575f80fd5b919050565b5f805f606084860312156200026e575f80fd5b62000279846200023f565b925062000289602085016200023f565b915062000299604085016200023f565b90509250925092565b634e487b7160e01b5f52604160045260245ffd5b600181811c90821680620002cb57607f821691505b602082108103620002ea57634e487b7160e01b5f52602260045260245ffd5b50919050565b601f8211156200033d575f81815260208120601f850160051c81016020861015620003185750805b601f850160051c820191505b81811015620003395782815560010162000324565b5050505b505050565b81516001600160401b038111156200035e576200035e620002a2565b62000376816200036f8454620002b6565b84620002f0565b602080601f831160018114620003ac575f8415620003945750858301515b5f19600386901b1c1916600185901b17855562000339565b5f85815260208120601f198616915b82811015620003dc57888601518255948401946001909101908401620003bb565b5085821015620003fa57878501515f19600388901b60f8161c191681555b5050505050600190811b01905550565b634e487b7160e01b5f52601160045260245ffd5b600181815b808511156200045e57815f19048211156200044257620004426200040a565b808516156200045057918102915b93841c939080029062000423565b509250929050565b5f82620004765750600162000513565b816200048457505f62000513565b81600181146200049d5760028114620004a857620004c8565b600191505062000513565b60ff841115620004bc57620004bc6200040a565b50506001821b62000513565b5060208310610133831016604e8410600b8410161715620004ed575081810a62000513565b620004f983836200041e565b805f19048211156200050f576200050f6200040a565b0290505b92915050565b5f6200052960ff84168362000466565b9392505050565b80820281158282048414176200051357620005136200040a565b610e4a80620005585f395ff3fe608060405234801561000f575f80fd5b5060043610610106575f3560e01c8063313ce5671161009e57806395d89b411161006e57806395d89b41146102285780639c8f9f23146102305780639cd441da14610243578063a9059cbb14610256578063dd62ed3e14610269575f80fd5b8063313ce567146101cb5780635e1e6325146101da5780635f64b55b146101ed57806370a0823114610200575f80fd5b806323b872dd116100d957806323b872dd146101885780632b7f09231461019b5780632d11c58a146101b05780632ff11597146101b8575f80fd5b806306fdde031461010a578063095ea7b3146101285780630fc63d101461014b57806318160ddd14610176575b5f80fd5b6101126102a1565b60405161011f9190610bcd565b60405180910390f35b61013b610136366004610c33565b610331565b604051901515815260200161011f565b60055461015e906001600160a01b031681565b6040516001600160a01b03909116815260200161011f565b6002545b60405190815260200161011f565b61013b610196366004610c5b565b61034a565b6101ae6101a9366004610c94565b61036d565b005b61017a601e81565b60075461015e906001600160a01b031681565b6040516012815260200161011f565b61017a6101e8366004610c94565b6104a9565b60065461015e906001600160a01b031681565b61017a61020e366004610ccd565b6001600160a01b03165f9081526020819052604090205490565b6101126105ce565b6101ae61023e366004610ced565b6105dd565b6101ae610251366004610d04565b61072f565b61013b610264366004610c33565b610776565b61017a610277366004610d24565b6001600160a01b039182165f90815260016020908152604080832093909416825291909152205490565b6060600380546102b090610d55565b80601f01602080910402602001604051908101604052809291908181526020018280546102dc90610d55565b80156103275780601f106102fe57610100808354040283529160200191610327565b820191905f5260205f20905b81548152906001019060200180831161030a57829003601f168201915b5050505050905090565b5f3361033e818585610783565b60019150505b92915050565b5f33610357858285610790565b61036285858561080c565b506001949350505050565b6005546001600160a01b038381169116148061039657506006546001600160a01b038381169116145b6103db5760405162461bcd60e51b815260206004820152601160248201527024b73b30b634b210333937b6aa37b5b2b760791b60448201526064015b60405180910390fd5b6005546001600160a01b038281169116148061040457506006546001600160a01b038281169116145b6104425760405162461bcd60e51b815260206004820152600f60248201526e24b73b30b634b2103a37aa37b5b2b760891b60448201526064016103d2565b6104576001600160a01b038316333086610869565b5f6104638484846104a9565b90505f612710610474601e84610da1565b61047e9190610db8565b90505f61048b8284610dd7565b90506104a16001600160a01b03851633836108d0565b505050505050565b6040516370a0823160e01b81523060048201525f9081906001600160a01b038516906370a0823190602401602060405180830381865afa1580156104ef573d5f803e3d5ffd5b505050506040513d601f19601f820116820180604052508101906105139190610dea565b6040516370a0823160e01b81523060048201529091505f906001600160a01b038516906370a0823190602401602060405180830381865afa15801561055a573d5f803e3d5ffd5b505050506040513d601f19601f8201168201806040525081019061057e9190610dea565b90505f61271061058f601e82610dd7565b6105999089610da1565b6105a39190610db8565b90506105af8184610e01565b6105b98383610da1565b6105c39190610db8565b979650505050505050565b6060600480546102b090610d55565b6105e73382610901565b5f6105f160025490565b6005546040516370a0823160e01b81523060048201526001600160a01b03909116906370a0823190602401602060405180830381865afa158015610637573d5f803e3d5ffd5b505050506040513d601f19601f8201168201806040525081019061065b9190610dea565b6106659084610da1565b61066f9190610db8565b90505f61067b60025490565b6006546040516370a0823160e01b81523060048201526001600160a01b03909116906370a0823190602401602060405180830381865afa1580156106c1573d5f803e3d5ffd5b505050506040513d601f19601f820116820180604052508101906106e59190610dea565b6106ef9085610da1565b6106f99190610db8565b600554909150610713906001600160a01b031633846108d0565b60065461072a906001600160a01b031633836108d0565b505050565b600554610747906001600160a01b0316333085610869565b60065461075f906001600160a01b0316333084610869565b6107723361076d8385610e01565b610935565b5050565b5f3361033e81858561080c565b61072a8383836001610969565b6001600160a01b038381165f908152600160209081526040808320938616835292905220545f1981101561080657818110156107f857604051637dc7a0d960e11b81526001600160a01b038416600482015260248101829052604481018390526064016103d2565b61080684848484035f610969565b50505050565b6001600160a01b03831661083557604051634b637e8f60e11b81525f60048201526024016103d2565b6001600160a01b03821661085e5760405163ec442f0560e01b81525f60048201526024016103d2565b61072a838383610a3b565b6040516001600160a01b0384811660248301528381166044830152606482018390526108069186918216906323b872dd906084015b604051602081830303815290604052915060e01b6020820180516001600160e01b038381831617835250505050610b61565b6040516001600160a01b0383811660248301526044820183905261072a91859182169063a9059cbb9060640161089e565b6001600160a01b03821661092a57604051634b637e8f60e11b81525f60048201526024016103d2565b610772825f83610a3b565b6001600160a01b03821661095e5760405163ec442f0560e01b81525f60048201526024016103d2565b6107725f8383610a3b565b6001600160a01b0384166109925760405163e602df0560e01b81525f60048201526024016103d2565b6001600160a01b0383166109bb57604051634a1406b160e11b81525f60048201526024016103d2565b6001600160a01b038085165f908152600160209081526040808320938716835292905220829055801561080657826001600160a01b0316846001600160a01b03167f8c5be1e5ebec7d5bd14f71427d1e84f3dd0314c0f7b2291e5b200ac8c7c3b92584604051610a2d91815260200190565b60405180910390a350505050565b6001600160a01b038316610a65578060025f828254610a5a9190610e01565b90915550610ad59050565b6001600160a01b0383165f9081526020819052604090205481811015610ab75760405163391434e360e21b81526001600160a01b038516600482015260248101829052604481018390526064016103d2565b6001600160a01b0384165f9081526020819052604090209082900390555b6001600160a01b038216610af157600280548290039055610b0f565b6001600160a01b0382165f9081526020819052604090208054820190555b816001600160a01b0316836001600160a01b03167fddf252ad1be2c89b69c2b068fc378daa952ba7f163c4a11628f55a4df523b3ef83604051610b5491815260200190565b60405180910390a3505050565b5f8060205f8451602086015f885af180610b80576040513d5f823e3d81fd5b50505f513d91508115610b97578060011415610ba4565b6001600160a01b0384163b155b1561080657604051635274afe760e01b81526001600160a01b03851660048201526024016103d2565b5f6020808352835180828501525f5b81811015610bf857858101830151858201604001528201610bdc565b505f604082860101526040601f19601f8301168501019250505092915050565b80356001600160a01b0381168114610c2e575f80fd5b919050565b5f8060408385031215610c44575f80fd5b610c4d83610c18565b946020939093013593505050565b5f805f60608486031215610c6d575f80fd5b610c7684610c18565b9250610c8460208501610c18565b9150604084013590509250925092565b5f805f60608486031215610ca6575f80fd5b83359250610cb660208501610c18565b9150610cc460408501610c18565b90509250925092565b5f60208284031215610cdd575f80fd5b610ce682610c18565b9392505050565b5f60208284031215610cfd575f80fd5b5035919050565b5f8060408385031215610d15575f80fd5b50508035926020909101359150565b5f8060408385031215610d35575f80fd5b610d3e83610c18565b9150610d4c60208401610c18565b90509250929050565b600181811c90821680610d6957607f821691505b602082108103610d8757634e487b7160e01b5f52602260045260245ffd5b50919050565b634e487b7160e01b5f52601160045260245ffd5b808202811582820484141761034457610344610d8d565b5f82610dd257634e487b7160e01b5f52601260045260245ffd5b500490565b8181038181111561034457610344610d8d565b5f60208284031215610dfa575f80fd5b5051919050565b8082018082111561034457610344610d8d56fea2646970667358221220e94bde89be38104b513d55e7b7533bd685b3527f1160228e08e6f688c990c39664736f6c63430008140033",
  "immutableReferences": {},
  "source": "// SPDX-License-Identifier: MIT\r\npragma solidity ^0.8.0;\r\n\r\nimport \"@openzeppelin/contracts/token/ERC20/IERC20.sol\";\r\nimport \"@openzeppelin/contracts/token/ERC20/ERC20.sol\";\r\nimport \"@openzeppelin/contracts/token/ERC20/utils/SafeERC20.sol\";\r\n\r\ncontract Pool2 is ERC20 {\r\n    using SafeERC20 for IERC20;\r\n\r\n    IERC20 public tokenA;\r\n    IERC20 public tokenB;\r\n    address public aiAddress;\r\n    uint256 public constant FEE_RATE = 30; // 0.3%\r\n\r\n    constructor(address _tokenA, address _tokenB, address _aiAddress) ERC20(\"Liquidity Provider Token 2\", \"LP_2\") {\r\n        tokenA = IERC20(_tokenA);\r\n        tokenB = IERC20(_tokenB);\r\n        aiAddress = _aiAddress;\r\n\r\n        // Initial reserves\r\n        tokenA.safeTransferFrom(msg.sender, address(this), 1000 * 10**decimals());\r\n        tokenB.safeTransferFrom(msg.sender, address(this), 5000 * 10**decimals());\r\n    }\r\n\r\n    function swap(uint256 amountIn, address fromToken, address toToken) external {\r\n        require(fromToken == address(tokenA) || fromToken == address(tokenB), \"Invalid fromToken\");\r\n        require(toToken == address(tokenA) || toToken == address(tokenB), \"Invalid toToken\");\r\n\r\n        // Transfer the amount from sender to pool\r\n        IERC20(fromToken).safeTransferFrom(msg.sender, address(this), amountIn);\r\n\r\n        uint256 amountOut = getAmountOut(amountIn, fromToken, toToken);\r\n\r\n        // Take the fee and update reserves\r\n        uint256 fee = (amountOut * FEE_RATE) / 10000;\r\n        uint256 amountOutAfterFee = amountOut - fee;\r\n\r\n        // Transfer the amount out to sender\r\n        IERC20(toToken).safeTransfer(msg.sender, amountOutAfterFee);\r\n    }\r\n\r\n    function getAmountOut(uint256 amountIn, address fromToken, address toToken) public view returns (uint256) {\r\n        uint256 reserveFrom = IERC20(fromToken).balanceOf(address(this));\r\n        uint256 reserveTo = IERC20(toToken).balanceOf(address(this));\r\n        uint256 amountInWithFee = amountIn * (10000 - FEE_RATE) / 10000;\r\n        return (amountInWithFee * reserveTo) / (reserveFrom + amountInWithFee);\r\n    }\r\n\r\n    function addLiquidity(uint256 amountA, uint256 amountB) external {\r\n        tokenA.safeTransferFrom(msg.sender, address(this), amountA);\r\n        tokenB.safeTransferFrom(msg.sender, address(this), amountB);\r\n        _mint(msg.sender, amountA + amountB);\r\n    }\r\n\r\n    function removeLiquidity(uint256 liquidity) external {\r\n        _burn(msg.sender, liquidity);\r\n        uint256 amountA = (liquidity * tokenA.balanceOf(address(this))) / totalSupply();\r\n        uint256 amountB = (liquidity * tokenB.balanceOf(address(this))) / totalSupply();\r\n        tokenA.safeTransfer(msg.sender, amountA);\r\n        tokenB.safeTransfer(msg.sender, amountB);\r\n    }\r\n}\r\n",
  "sourcePath": "C:\\Users\\John PC\\Desktop\\startups\\GIMERA_DEX\\contracts\\contracts\\POOL2.sol",
  "compiler": {
    "name": "solc",
    "version": "0.8.20+commit.a1b79de6.Emscripten.clang"
  },
  "schemaVersion": "3.4.16",
  "updatedAt": "2025-02-11T17:55:49.279Z",
  "devdoc": {
    "errors": {
      "ERC20InsufficientAllowance(address,uint256,uint256)": [
        {
          "details": "Indicates a failure with the `spender`s `allowance`. Used in transfers.",
          "params": {
            "allowance": "Amount of tokens a `spender` is allowed to operate with.",
            "needed": "Minimum amount required to perform a transfer.",
            "spender": "Address that may be allowed to operate on tokens without being their owner."
          }
        }
      ],
      "ERC20InsufficientBalance(address,uint256,uint256)": [
        {
          "details": "Indicates an error related to the current `balance` of a `sender`. Used in transfers.",
          "params": {
            "balance": "Current balance for the interacting account.",
            "needed": "Minimum amount required to perform a transfer.",
            "sender": "Address whose tokens are being transferred."
          }
        }
      ],
      "ERC20InvalidApprover(address)": [
        {
          "details": "Indicates a failure with the `approver` of a token to be approved. Used in approvals.",
          "params": {
            "approver": "Address initiating an approval operation."
          }
        }
      ],
      "ERC20InvalidReceiver(address)": [
        {
          "details": "Indicates a failure with the token `receiver`. Used in transfers.",
          "params": {
            "receiver": "Address to which tokens are being transferred."
          }
        }
      ],
      "ERC20InvalidSender(address)": [
        {
          "details": "Indicates a failure with the token `sender`. Used in transfers.",
          "params": {
            "sender": "Address whose tokens are being transferred."
          }
        }
      ],
      "ERC20InvalidSpender(address)": [
        {
          "details": "Indicates a failure with the `spender` to be approved. Used in approvals.",
          "params": {
            "spender": "Address that may be allowed to operate on tokens without being their owner."
          }
        }
      ],
      "SafeERC20FailedOperation(address)": [
        {
          "details": "An operation with an ERC-20 token failed."
        }
      ]
    },
    "events": {
      "Approval(address,address,uint256)": {
        "details": "Emitted when the allowance of a `spender` for an `owner` is set by a call to {approve}. `value` is the new allowance."
      },
      "Transfer(address,address,uint256)": {
        "details": "Emitted when `value` tokens are moved from one account (`from`) to another (`to`). Note that `value` may be zero."
      }
    },
    "kind": "dev",
    "methods": {
      "allowance(address,address)": {
        "details": "See {IERC20-allowance}."
      },
      "approve(address,uint256)": {
        "details": "See {IERC20-approve}. NOTE: If `value` is the maximum `uint256`, the allowance is not updated on `transferFrom`. This is semantically equivalent to an infinite approval. Requirements: - `spender` cannot be the zero address."
      },
      "balanceOf(address)": {
        "details": "See {IERC20-balanceOf}."
      },
      "decimals()": {
        "details": "Returns the number of decimals used to get its user representation. For example, if `decimals` equals `2`, a balance of `505` tokens should be displayed to a user as `5.05` (`505 / 10 ** 2`). Tokens usually opt for a value of 18, imitating the relationship between Ether and Wei. This is the default value returned by this function, unless it's overridden. NOTE: This information is only used for _display_ purposes: it in no way affects any of the arithmetic of the contract, including {IERC20-balanceOf} and {IERC20-transfer}."
      },
      "name()": {
        "details": "Returns the name of the token."
      },
      "symbol()": {
        "details": "Returns the symbol of the token, usually a shorter version of the name."
      },
      "totalSupply()": {
        "details": "See {IERC20-totalSupply}."
      },
      "transfer(address,uint256)": {
        "details": "See {IERC20-transfer}. Requirements: - `to` cannot be the zero address. - the caller must have a balance of at least `value`."
      },
      "transferFrom(address,address,uint256)": {
        "details": "See {IERC20-transferFrom}. Skips emitting an {Approval} event indicating an allowance update. This is not required by the ERC. See {xref-ERC20-_approve-address-address-uint256-bool-}[_approve]. NOTE: Does not update the allowance if the current allowance is the maximum `uint256`. Requirements: - `from` and `to` cannot be the zero address. - `from` must have a balance of at least `value`. - the caller must have allowance for ``from``'s tokens of at least `value`."
      }
    },
    "version": 1
  },
  "userdoc": {
    "kind": "user",
    "methods": {},
    "version": 1
  }
}